{
  "contractName": "SimpleLockFund",
  "abi": [
    {
      "constant": true,
      "inputs": [],
      "name": "state",
      "outputs": [
        {
          "internalType": "enum SimpleLockFund.State",
          "name": "",
          "type": "uint8"
        }
      ],
      "payable": false,
      "stateMutability": "view",
      "type": "function"
    },
    {
      "constant": false,
      "inputs": [
        {
          "internalType": "uint256",
          "name": "LockTime",
          "type": "uint256"
        }
      ],
      "name": "cashIn",
      "outputs": [],
      "payable": true,
      "stateMutability": "payable",
      "type": "function"
    },
    {
      "constant": false,
      "inputs": [],
      "name": "cashOut",
      "outputs": [],
      "payable": true,
      "stateMutability": "payable",
      "type": "function"
    },
    {
      "constant": true,
      "inputs": [],
      "name": "getFundLock",
      "outputs": [
        {
          "internalType": "uint256",
          "name": "x",
          "type": "uint256"
        }
      ],
      "payable": false,
      "stateMutability": "view",
      "type": "function"
    },
    {
      "constant": true,
      "inputs": [],
      "name": "getLockTime",
      "outputs": [
        {
          "internalType": "uint256",
          "name": "x",
          "type": "uint256"
        }
      ],
      "payable": false,
      "stateMutability": "view",
      "type": "function"
    }
  ],
  "bytecode": "0x608060405234801561001057600080fd5b50610316806100206000396000f3fe60806040526004361061004a5760003560e01c806319486f061461004f578063793cd71e1461007a578063c0a4d64d14610084578063c19d93fb146100af578063c3296673146100e8575b600080fd5b34801561005b57600080fd5b50610064610116565b6040518082815260200191505060405180910390f35b610082610160565b005b34801561009057600080fd5b5061009961023c565b6040518082815260200191505060405180910390f35b3480156100bb57600080fd5b506100c4610286565b604051808260018111156100d457fe5b60ff16815260200191505060405180910390f35b610114600480360360208110156100fe57600080fd5b8101908080359060200190929190505050610298565b005b6000600160003373ffffffffffffffffffffffffffffffffffffffff1673ffffffffffffffffffffffffffffffffffffffff16815260200190815260200160002060000154905090565b600160003373ffffffffffffffffffffffffffffffffffffffff1673ffffffffffffffffffffffffffffffffffffffff168152602001908152602001600020600101544211610217576040517f08c379a000000000000000000000000000000000000000000000000000000000815260040180806020018281038252601a8152602001807f4c6f636b2054696d65206973206e6f7420656e6465642079657400000000000081525060200191505060405180910390fd5b60016000806101000a81548160ff0219169083600181111561023557fe5b0217905550565b6000600160003373ffffffffffffffffffffffffffffffffffffffff1673ffffffffffffffffffffffffffffffffffffffff16815260200190815260200160002060010154905090565b6000809054906101000a900460ff1681565b6000803373ffffffffffffffffffffffffffffffffffffffff163111156102dd5760016000806101000a81548160ff021916908360018111156102d757fe5b02179055505b505056fea265627a7a723158205e3e1758a7302b313661cb0cbb1d8eecd679a77916d9f0635e1838cd3c76289a64736f6c63430005100032",
  "source": "pragma solidity >=0.4.22 <0.8.0;\n\ncontract SimpleLockFund {\n    \n    enum State {Locked, Release}\n    State public state;\n\n    struct FundData {\n        uint balance;\n        uint releaseBlock;\n    }\n    mapping (address => FundData) funds;\n\n    modifier inState(State _state) {\n        require(\n            state == _state,\n            \"Invalid state.\"\n        );\n        _;\n    }\n\n    modifier onlyAfter() {\n        require(block.timestamp > funds[msg.sender].releaseBlock,\"Lock Time is not ended yet\" );\n        _;\n    }\n\n    function cashIn(uint LockTime) public payable {\n        uint amount;\n\n        if(msg.sender.balance > amount ) {\n            state = State.Release;\n\n        }\n    }\n\n    function cashOut() public payable  onlyAfter() {\n        state = State.Release;\n\n    }\n\n\n    function getFundLock () external view returns (uint x) {\n        return funds[msg.sender].balance;\n    }\n\n    function getLockTime () external view returns (uint x) {\n        return funds[msg.sender].releaseBlock;\n    }\n\n}",
  "sourcePath": "/home/floyd/Documents/Atka_demo/contracts/SimpleLockFund.sol",
  "compiler": {
    "name": "solc",
    "version": "0.5.16+commit.9c3226ce.Emscripten.clang"
  },
  "schemaVersion": "3.3.2",
  "updatedAt": "2020-12-07T10:26:54.654Z",
  "devdoc": {
    "methods": {}
  },
  "userdoc": {
    "methods": {}
  }
}